{
  "_format": "hh-sol-artifact-1",
  "contractName": "DegenGameToken",
  "sourceName": "contracts/DegenGameToken.sol",
  "abi": [
    {
      "inputs": [],
      "stateMutability": "nonpayable",
      "type": "constructor"
    },
    {
      "inputs": [
        {
          "internalType": "address",
          "name": "spender",
          "type": "address"
        },
        {
          "internalType": "uint256",
          "name": "allowance",
          "type": "uint256"
        },
        {
          "internalType": "uint256",
          "name": "needed",
          "type": "uint256"
        }
      ],
      "name": "ERC20InsufficientAllowance",
      "type": "error"
    },
    {
      "inputs": [
        {
          "internalType": "address",
          "name": "sender",
          "type": "address"
        },
        {
          "internalType": "uint256",
          "name": "balance",
          "type": "uint256"
        },
        {
          "internalType": "uint256",
          "name": "needed",
          "type": "uint256"
        }
      ],
      "name": "ERC20InsufficientBalance",
      "type": "error"
    },
    {
      "inputs": [
        {
          "internalType": "address",
          "name": "approver",
          "type": "address"
        }
      ],
      "name": "ERC20InvalidApprover",
      "type": "error"
    },
    {
      "inputs": [
        {
          "internalType": "address",
          "name": "receiver",
          "type": "address"
        }
      ],
      "name": "ERC20InvalidReceiver",
      "type": "error"
    },
    {
      "inputs": [
        {
          "internalType": "address",
          "name": "sender",
          "type": "address"
        }
      ],
      "name": "ERC20InvalidSender",
      "type": "error"
    },
    {
      "inputs": [
        {
          "internalType": "address",
          "name": "spender",
          "type": "address"
        }
      ],
      "name": "ERC20InvalidSpender",
      "type": "error"
    },
    {
      "inputs": [
        {
          "internalType": "address",
          "name": "owner",
          "type": "address"
        }
      ],
      "name": "OwnableInvalidOwner",
      "type": "error"
    },
    {
      "inputs": [
        {
          "internalType": "address",
          "name": "account",
          "type": "address"
        }
      ],
      "name": "OwnableUnauthorizedAccount",
      "type": "error"
    },
    {
      "anonymous": false,
      "inputs": [
        {
          "indexed": true,
          "internalType": "address",
          "name": "owner",
          "type": "address"
        },
        {
          "indexed": true,
          "internalType": "address",
          "name": "spender",
          "type": "address"
        },
        {
          "indexed": false,
          "internalType": "uint256",
          "name": "value",
          "type": "uint256"
        }
      ],
      "name": "Approval",
      "type": "event"
    },
    {
      "anonymous": false,
      "inputs": [
        {
          "indexed": true,
          "internalType": "address",
          "name": "previousOwner",
          "type": "address"
        },
        {
          "indexed": true,
          "internalType": "address",
          "name": "newOwner",
          "type": "address"
        }
      ],
      "name": "OwnershipTransferred",
      "type": "event"
    },
    {
      "anonymous": false,
      "inputs": [
        {
          "indexed": true,
          "internalType": "address",
          "name": "from",
          "type": "address"
        },
        {
          "indexed": true,
          "internalType": "address",
          "name": "to",
          "type": "address"
        },
        {
          "indexed": false,
          "internalType": "uint256",
          "name": "value",
          "type": "uint256"
        }
      ],
      "name": "Transfer",
      "type": "event"
    },
    {
      "inputs": [
        {
          "internalType": "address",
          "name": "owner",
          "type": "address"
        },
        {
          "internalType": "address",
          "name": "spender",
          "type": "address"
        }
      ],
      "name": "allowance",
      "outputs": [
        {
          "internalType": "uint256",
          "name": "",
          "type": "uint256"
        }
      ],
      "stateMutability": "view",
      "type": "function"
    },
    {
      "inputs": [
        {
          "internalType": "address",
          "name": "spender",
          "type": "address"
        },
        {
          "internalType": "uint256",
          "name": "value",
          "type": "uint256"
        }
      ],
      "name": "approve",
      "outputs": [
        {
          "internalType": "bool",
          "name": "",
          "type": "bool"
        }
      ],
      "stateMutability": "nonpayable",
      "type": "function"
    },
    {
      "inputs": [
        {
          "internalType": "address",
          "name": "account",
          "type": "address"
        }
      ],
      "name": "balanceOf",
      "outputs": [
        {
          "internalType": "uint256",
          "name": "",
          "type": "uint256"
        }
      ],
      "stateMutability": "view",
      "type": "function"
    },
    {
      "inputs": [
        {
          "internalType": "uint256",
          "name": "value",
          "type": "uint256"
        }
      ],
      "name": "burn",
      "outputs": [],
      "stateMutability": "nonpayable",
      "type": "function"
    },
    {
      "inputs": [
        {
          "internalType": "uint256",
          "name": "_amount",
          "type": "uint256"
        }
      ],
      "name": "burnCoin",
      "outputs": [],
      "stateMutability": "nonpayable",
      "type": "function"
    },
    {
      "inputs": [
        {
          "internalType": "address",
          "name": "account",
          "type": "address"
        },
        {
          "internalType": "uint256",
          "name": "value",
          "type": "uint256"
        }
      ],
      "name": "burnFrom",
      "outputs": [],
      "stateMutability": "nonpayable",
      "type": "function"
    },
    {
      "inputs": [],
      "name": "checkBalance",
      "outputs": [
        {
          "internalType": "uint256",
          "name": "",
          "type": "uint256"
        }
      ],
      "stateMutability": "view",
      "type": "function"
    },
    {
      "inputs": [
        {
          "internalType": "uint256",
          "name": "_optionID",
          "type": "uint256"
        }
      ],
      "name": "claimRewards",
      "outputs": [],
      "stateMutability": "nonpayable",
      "type": "function"
    },
    {
      "inputs": [],
      "name": "decimals",
      "outputs": [
        {
          "internalType": "uint8",
          "name": "",
          "type": "uint8"
        }
      ],
      "stateMutability": "view",
      "type": "function"
    },
    {
      "inputs": [],
      "name": "displayRewards",
      "outputs": [
        {
          "internalType": "string",
          "name": "",
          "type": "string"
        }
      ],
      "stateMutability": "pure",
      "type": "function"
    },
    {
      "inputs": [
        {
          "internalType": "address",
          "name": "_to",
          "type": "address"
        },
        {
          "internalType": "uint256",
          "name": "_amount",
          "type": "uint256"
        }
      ],
      "name": "mintCoin",
      "outputs": [],
      "stateMutability": "nonpayable",
      "type": "function"
    },
    {
      "inputs": [],
      "name": "name",
      "outputs": [
        {
          "internalType": "string",
          "name": "",
          "type": "string"
        }
      ],
      "stateMutability": "view",
      "type": "function"
    },
    {
      "inputs": [
        {
          "internalType": "uint256",
          "name": "",
          "type": "uint256"
        }
      ],
      "name": "optionToCost",
      "outputs": [
        {
          "internalType": "uint256",
          "name": "",
          "type": "uint256"
        }
      ],
      "stateMutability": "view",
      "type": "function"
    },
    {
      "inputs": [],
      "name": "owner",
      "outputs": [
        {
          "internalType": "address",
          "name": "",
          "type": "address"
        }
      ],
      "stateMutability": "view",
      "type": "function"
    },
    {
      "inputs": [
        {
          "internalType": "address",
          "name": "",
          "type": "address"
        },
        {
          "internalType": "uint256",
          "name": "",
          "type": "uint256"
        }
      ],
      "name": "playerToRewards",
      "outputs": [
        {
          "internalType": "uint256",
          "name": "",
          "type": "uint256"
        }
      ],
      "stateMutability": "view",
      "type": "function"
    },
    {
      "inputs": [],
      "name": "renounceOwnership",
      "outputs": [],
      "stateMutability": "nonpayable",
      "type": "function"
    },
    {
      "inputs": [],
      "name": "symbol",
      "outputs": [
        {
          "internalType": "string",
          "name": "",
          "type": "string"
        }
      ],
      "stateMutability": "view",
      "type": "function"
    },
    {
      "inputs": [],
      "name": "totalSupply",
      "outputs": [
        {
          "internalType": "uint256",
          "name": "",
          "type": "uint256"
        }
      ],
      "stateMutability": "view",
      "type": "function"
    },
    {
      "inputs": [
        {
          "internalType": "address",
          "name": "to",
          "type": "address"
        },
        {
          "internalType": "uint256",
          "name": "value",
          "type": "uint256"
        }
      ],
      "name": "transfer",
      "outputs": [
        {
          "internalType": "bool",
          "name": "",
          "type": "bool"
        }
      ],
      "stateMutability": "nonpayable",
      "type": "function"
    },
    {
      "inputs": [
        {
          "internalType": "address",
          "name": "_to",
          "type": "address"
        },
        {
          "internalType": "uint256",
          "name": "_amount",
          "type": "uint256"
        }
      ],
      "name": "transferCoin",
      "outputs": [],
      "stateMutability": "nonpayable",
      "type": "function"
    },
    {
      "inputs": [
        {
          "internalType": "address",
          "name": "from",
          "type": "address"
        },
        {
          "internalType": "address",
          "name": "to",
          "type": "address"
        },
        {
          "internalType": "uint256",
          "name": "value",
          "type": "uint256"
        }
      ],
      "name": "transferFrom",
      "outputs": [
        {
          "internalType": "bool",
          "name": "",
          "type": "bool"
        }
      ],
      "stateMutability": "nonpayable",
      "type": "function"
    },
    {
      "inputs": [
        {
          "internalType": "address",
          "name": "newOwner",
          "type": "address"
        }
      ],
      "name": "transferOwnership",
      "outputs": [],
      "stateMutability": "nonpayable",
      "type": "function"
    },
    {
      "inputs": [
        {
          "internalType": "address",
          "name": "_player",
          "type": "address"
        }
      ],
      "name": "viewClaimedRewards",
      "outputs": [
        {
          "internalType": "uint256[]",
          "name": "",
          "type": "uint256[]"
        }
      ],
      "stateMutability": "view",
      "type": "function"
    }
  ],
  "bytecode": "0x60806040523480156200001157600080fd5b506040518060400160405280600981526020017f47616d6572436f696e00000000000000000000000000000000000000000000008152506040518060400160405280600381526020017f474d43000000000000000000000000000000000000000000000000000000000081525033600073ffffffffffffffffffffffffffffffffffffffff168173ffffffffffffffffffffffffffffffffffffffff1603620000f45760006040517f1e4fbdf7000000000000000000000000000000000000000000000000000000008152600401620000eb91906200028a565b60405180910390fd5b62000105816200018160201b60201c565b50816004908162000117919062000521565b50806005908162000129919062000521565b505050603260066000600181526020019081526020016000208190555060c860066000600281526020019081526020016000208190555061138860066000600381526020019081526020016000208190555062000608565b60008060009054906101000a900473ffffffffffffffffffffffffffffffffffffffff169050816000806101000a81548173ffffffffffffffffffffffffffffffffffffffff021916908373ffffffffffffffffffffffffffffffffffffffff1602179055508173ffffffffffffffffffffffffffffffffffffffff168173ffffffffffffffffffffffffffffffffffffffff167f8be0079c531659141344cd1fd0a4f28419497f9722a3daafe3b4186f6b6457e060405160405180910390a35050565b600073ffffffffffffffffffffffffffffffffffffffff82169050919050565b6000620002728262000245565b9050919050565b620002848162000265565b82525050565b6000602082019050620002a1600083018462000279565b92915050565b600081519050919050565b7f4e487b7100000000000000000000000000000000000000000000000000000000600052604160045260246000fd5b7f4e487b7100000000000000000000000000000000000000000000000000000000600052602260045260246000fd5b600060028204905060018216806200032957607f821691505b6020821081036200033f576200033e620002e1565b5b50919050565b60008190508160005260206000209050919050565b60006020601f8301049050919050565b600082821b905092915050565b600060088302620003a97fffffffffffffffffffffffffffffffffffffffffffffffffffffffffffffffff826200036a565b620003b586836200036a565b95508019841693508086168417925050509392505050565b6000819050919050565b6000819050919050565b600062000402620003fc620003f684620003cd565b620003d7565b620003cd565b9050919050565b6000819050919050565b6200041e83620003e1565b620004366200042d8262000409565b84845462000377565b825550505050565b600090565b6200044d6200043e565b6200045a81848462000413565b505050565b5b8181101562000482576200047660008262000443565b60018101905062000460565b5050565b601f821115620004d1576200049b8162000345565b620004a6846200035a565b81016020851015620004b6578190505b620004ce620004c5856200035a565b8301826200045f565b50505b505050565b600082821c905092915050565b6000620004f660001984600802620004d6565b1980831691505092915050565b6000620005118383620004e3565b9150826002028217905092915050565b6200052c82620002a7565b67ffffffffffffffff811115620005485762000547620002b2565b5b62000554825462000310565b6200056182828562000486565b600060209050601f83116001811462000599576000841562000584578287015190505b62000590858262000503565b86555062000600565b601f198416620005a98662000345565b60005b82811015620005d357848901518255600182019150602085019450602081019050620005ac565b86831015620005f35784890151620005ef601f891682620004e3565b8355505b6001600288020188555050505b505050505050565b611a4780620006186000396000f3fe608060405234801561001057600080fd5b506004361061014d5760003560e01c80638da5cb5b116100c3578063c71daccb1161007c578063c71daccb1461038c578063c77c0ff5146103aa578063d387ef09146103da578063dd62ed3e1461040a578063ec1553d11461043a578063f2fde38b146104565761014d565b80638da5cb5b146102b85780638dde60fa146102d657806395d89b41146102f2578063a3262e5714610310578063a9059cbb1461032c578063ac5bc0611461035c5761014d565b8063313ce56711610115578063313ce5671461020a57806342966c68146102285780634bcc69cd1461024457806370a0823114610262578063715018a61461029257806379cc67901461029c5761014d565b806306fdde0314610152578063095ea7b3146101705780630962ef79146101a057806318160ddd146101bc57806323b872dd146101da575b600080fd5b61015a610472565b604051610167919061142e565b60405180910390f35b61018a600480360381019061018591906114e9565b610504565b6040516101979190611544565b60405180910390f35b6101ba60048036038101906101b5919061155f565b610527565b005b6101c4610660565b6040516101d1919061159b565b60405180910390f35b6101f460048036038101906101ef91906115b6565b61066a565b6040516102019190611544565b60405180910390f35b610212610699565b60405161021f9190611625565b60405180910390f35b610242600480360381019061023d919061155f565b6106a2565b005b61024c6106b6565b604051610259919061142e565b60405180910390f35b61027c60048036038101906102779190611640565b6106e5565b604051610289919061159b565b60405180910390f35b61029a61072e565b005b6102b660048036038101906102b191906114e9565b610742565b005b6102c0610762565b6040516102cd919061167c565b60405180910390f35b6102f060048036038101906102eb91906114e9565b61078b565b005b6102fa6107f1565b604051610307919061142e565b60405180910390f35b61032a6004803603810190610325919061155f565b610883565b005b610346600480360381019061034191906114e9565b61088f565b6040516103539190611544565b60405180910390f35b61037660048036038101906103719190611640565b6108b2565b6040516103839190611755565b60405180910390f35b610394610949565b6040516103a1919061159b565b60405180910390f35b6103c460048036038101906103bf91906114e9565b610959565b6040516103d1919061159b565b60405180910390f35b6103f460048036038101906103ef919061155f565b61098a565b604051610401919061159b565b60405180910390f35b610424600480360381019061041f9190611777565b6109a2565b604051610431919061159b565b60405180910390f35b610454600480360381019061044f91906114e9565b610a29565b005b610470600480360381019061046b9190611640565b610a3f565b005b606060048054610481906117e6565b80601f01602080910402602001604051908101604052809291908181526020018280546104ad906117e6565b80156104fa5780601f106104cf576101008083540402835291602001916104fa565b820191906000526020600020905b8154815290600101906020018083116104dd57829003601f168201915b5050505050905090565b60008061050f610ac5565b905061051c818585610acd565b600191505092915050565b600060066000838152602001908152602001600020540361057d576040517f08c379a000000000000000000000000000000000000000000000000000000000815260040161057490611863565b60405180910390fd5b600660008281526020019081526020016000205461059a336106e5565b10156105db576040517f08c379a00000000000000000000000000000000000000000000000000000000081526004016105d2906118cf565b60405180910390fd5b6105f760066000838152602001908152602001600020546106a2565b600760003373ffffffffffffffffffffffffffffffffffffffff1673ffffffffffffffffffffffffffffffffffffffff16815260200190815260200160002081908060018154018082558091505060019003906000526020600020016000909190919091505550565b6000600354905090565b600080610675610ac5565b9050610682858285610adf565b61068d858585610b73565b60019150509392505050565b60006012905090565b6106b36106ad610ac5565b82610c67565b50565b606060006040518060800160405280605981526020016119b96059913990506106de81610ce9565b8091505090565b6000600160008373ffffffffffffffffffffffffffffffffffffffff1673ffffffffffffffffffffffffffffffffffffffff168152602001908152602001600020549050919050565b610736610d82565b6107406000610e09565b565b6107548261074e610ac5565b83610adf565b61075e8282610c67565b5050565b60008060009054906101000a900473ffffffffffffffffffffffffffffffffffffffff16905090565b80610795336106e5565b10156107d6576040517f08c379a00000000000000000000000000000000000000000000000000000000081526004016107cd906118cf565b60405180910390fd5b6107e03382610504565b506107ec33838361066a565b505050565b606060058054610800906117e6565b80601f016020809104026020016040519081016040528092919081815260200182805461082c906117e6565b80156108795780601f1061084e57610100808354040283529160200191610879565b820191906000526020600020905b81548152906001019060200180831161085c57829003601f168201915b5050505050905090565b61088c816106a2565b50565b60008061089a610ac5565b90506108a7818585610b73565b600191505092915050565b6060600760008373ffffffffffffffffffffffffffffffffffffffff1673ffffffffffffffffffffffffffffffffffffffff16815260200190815260200160002080548060200260200160405190810160405280929190818152602001828054801561093d57602002820191906000526020600020905b815481526020019060010190808311610929575b50505050509050919050565b6000610954336106e5565b905090565b6007602052816000526040600020818154811061097557600080fd5b90600052602060002001600091509150505481565b60066020528060005260406000206000915090505481565b6000600260008473ffffffffffffffffffffffffffffffffffffffff1673ffffffffffffffffffffffffffffffffffffffff16815260200190815260200160002060008373ffffffffffffffffffffffffffffffffffffffff1673ffffffffffffffffffffffffffffffffffffffff16815260200190815260200160002054905092915050565b610a31610d82565b610a3b8282610ecd565b5050565b610a47610d82565b600073ffffffffffffffffffffffffffffffffffffffff168173ffffffffffffffffffffffffffffffffffffffff1603610ab95760006040517f1e4fbdf7000000000000000000000000000000000000000000000000000000008152600401610ab0919061167c565b60405180910390fd5b610ac281610e09565b50565b600033905090565b610ada8383836001610f4f565b505050565b6000610aeb84846109a2565b90507fffffffffffffffffffffffffffffffffffffffffffffffffffffffffffffffff8114610b6d5781811015610b5d578281836040517ffb8f41b2000000000000000000000000000000000000000000000000000000008152600401610b54939291906118ef565b60405180910390fd5b610b6c84848484036000610f4f565b5b50505050565b600073ffffffffffffffffffffffffffffffffffffffff168373ffffffffffffffffffffffffffffffffffffffff1603610be55760006040517f96c6fd1e000000000000000000000000000000000000000000000000000000008152600401610bdc919061167c565b60405180910390fd5b600073ffffffffffffffffffffffffffffffffffffffff168273ffffffffffffffffffffffffffffffffffffffff1603610c575760006040517fec442f05000000000000000000000000000000000000000000000000000000008152600401610c4e919061167c565b60405180910390fd5b610c62838383611126565b505050565b600073ffffffffffffffffffffffffffffffffffffffff168273ffffffffffffffffffffffffffffffffffffffff1603610cd95760006040517f96c6fd1e000000000000000000000000000000000000000000000000000000008152600401610cd0919061167c565b60405180910390fd5b610ce582600083611126565b5050565b610d7f81604051602401610cfd919061142e565b6040516020818303038152906040527f41304fac000000000000000000000000000000000000000000000000000000007bffffffffffffffffffffffffffffffffffffffffffffffffffffffff19166020820180517bffffffffffffffffffffffffffffffffffffffffffffffffffffffff838183161783525050505061134e565b50565b610d8a610ac5565b73ffffffffffffffffffffffffffffffffffffffff16610da8610762565b73ffffffffffffffffffffffffffffffffffffffff1614610e0757610dcb610ac5565b6040517f118cdaa7000000000000000000000000000000000000000000000000000000008152600401610dfe919061167c565b60405180910390fd5b565b60008060009054906101000a900473ffffffffffffffffffffffffffffffffffffffff169050816000806101000a81548173ffffffffffffffffffffffffffffffffffffffff021916908373ffffffffffffffffffffffffffffffffffffffff1602179055508173ffffffffffffffffffffffffffffffffffffffff168173ffffffffffffffffffffffffffffffffffffffff167f8be0079c531659141344cd1fd0a4f28419497f9722a3daafe3b4186f6b6457e060405160405180910390a35050565b600073ffffffffffffffffffffffffffffffffffffffff168273ffffffffffffffffffffffffffffffffffffffff1603610f3f5760006040517fec442f05000000000000000000000000000000000000000000000000000000008152600401610f36919061167c565b60405180910390fd5b610f4b60008383611126565b5050565b600073ffffffffffffffffffffffffffffffffffffffff168473ffffffffffffffffffffffffffffffffffffffff1603610fc15760006040517fe602df05000000000000000000000000000000000000000000000000000000008152600401610fb8919061167c565b60405180910390fd5b600073ffffffffffffffffffffffffffffffffffffffff168373ffffffffffffffffffffffffffffffffffffffff16036110335760006040517f94280d6200000000000000000000000000000000000000000000000000000000815260040161102a919061167c565b60405180910390fd5b81600260008673ffffffffffffffffffffffffffffffffffffffff1673ffffffffffffffffffffffffffffffffffffffff16815260200190815260200160002060008573ffffffffffffffffffffffffffffffffffffffff1673ffffffffffffffffffffffffffffffffffffffff168152602001908152602001600020819055508015611120578273ffffffffffffffffffffffffffffffffffffffff168473ffffffffffffffffffffffffffffffffffffffff167f8c5be1e5ebec7d5bd14f71427d1e84f3dd0314c0f7b2291e5b200ac8c7c3b92584604051611117919061159b565b60405180910390a35b50505050565b600073ffffffffffffffffffffffffffffffffffffffff168373ffffffffffffffffffffffffffffffffffffffff160361117857806003600082825461116c9190611955565b9250508190555061124d565b6000600160008573ffffffffffffffffffffffffffffffffffffffff1673ffffffffffffffffffffffffffffffffffffffff16815260200190815260200160002054905081811015611205578381836040517fe450d38c0000000000000000000000000000000000000000000000000000000081526004016111fc939291906118ef565b60405180910390fd5b818103600160008673ffffffffffffffffffffffffffffffffffffffff1673ffffffffffffffffffffffffffffffffffffffff16815260200190815260200160002081905550505b600073ffffffffffffffffffffffffffffffffffffffff168273ffffffffffffffffffffffffffffffffffffffff160361129657806003600082825403925050819055506112e4565b80600160008473ffffffffffffffffffffffffffffffffffffffff1673ffffffffffffffffffffffffffffffffffffffff168152602001908152602001600020600082825401925050819055505b8173ffffffffffffffffffffffffffffffffffffffff168373ffffffffffffffffffffffffffffffffffffffff167fddf252ad1be2c89b69c2b068fc378daa952ba7f163c4a11628f55a4df523b3ef83604051611341919061159b565b60405180910390a3505050565b6113658161135d611368611389565b63ffffffff16565b50565b60006a636f6e736f6c652e6c6f679050600080835160208501845afa505050565b611394819050919050565b61139c611989565b565b600081519050919050565b600082825260208201905092915050565b60005b838110156113d85780820151818401526020810190506113bd565b60008484015250505050565b6000601f19601f8301169050919050565b60006114008261139e565b61140a81856113a9565b935061141a8185602086016113ba565b611423816113e4565b840191505092915050565b6000602082019050818103600083015261144881846113f5565b905092915050565b600080fd5b600073ffffffffffffffffffffffffffffffffffffffff82169050919050565b600061148082611455565b9050919050565b61149081611475565b811461149b57600080fd5b50565b6000813590506114ad81611487565b92915050565b6000819050919050565b6114c6816114b3565b81146114d157600080fd5b50565b6000813590506114e3816114bd565b92915050565b60008060408385031215611500576114ff611450565b5b600061150e8582860161149e565b925050602061151f858286016114d4565b9150509250929050565b60008115159050919050565b61153e81611529565b82525050565b60006020820190506115596000830184611535565b92915050565b60006020828403121561157557611574611450565b5b6000611583848285016114d4565b91505092915050565b611595816114b3565b82525050565b60006020820190506115b0600083018461158c565b92915050565b6000806000606084860312156115cf576115ce611450565b5b60006115dd8682870161149e565b93505060206115ee8682870161149e565b92505060406115ff868287016114d4565b9150509250925092565b600060ff82169050919050565b61161f81611609565b82525050565b600060208201905061163a6000830184611616565b92915050565b60006020828403121561165657611655611450565b5b60006116648482850161149e565b91505092915050565b61167681611475565b82525050565b6000602082019050611691600083018461166d565b92915050565b600081519050919050565b600082825260208201905092915050565b6000819050602082019050919050565b6116cc816114b3565b82525050565b60006116de83836116c3565b60208301905092915050565b6000602082019050919050565b600061170282611697565b61170c81856116a2565b9350611717836116b3565b8060005b8381101561174857815161172f88826116d2565b975061173a836116ea565b92505060018101905061171b565b5085935050505092915050565b6000602082019050818103600083015261176f81846116f7565b905092915050565b6000806040838503121561178e5761178d611450565b5b600061179c8582860161149e565b92505060206117ad8582860161149e565b9150509250929050565b7f4e487b7100000000000000000000000000000000000000000000000000000000600052602260045260246000fd5b600060028204905060018216806117fe57607f821691505b602082108103611811576118106117b7565b5b50919050565b7f496e76616c696420526577617264204f7074696f6e0000000000000000000000600082015250565b600061184d6015836113a9565b915061185882611817565b602082019050919050565b6000602082019050818103600083015261187c81611840565b9050919050565b7f496e73756666696369656e742047616d6572436f696e2062616c616e63650000600082015250565b60006118b9601e836113a9565b91506118c482611883565b602082019050919050565b600060208201905081810360008301526118e8816118ac565b9050919050565b6000606082019050611904600083018661166d565b611911602083018561158c565b61191e604083018461158c565b949350505050565b7f4e487b7100000000000000000000000000000000000000000000000000000000600052601160045260246000fd5b6000611960826114b3565b915061196b836114b3565b925082820190508082111561198357611982611926565b5b92915050565b7f4e487b7100000000000000000000000000000000000000000000000000000000600052605160045260246000fdfe313a20426173696320506f776572205570202d20353020474d43200a323a20416476616e636564204765617220536574202d2032303020474d430a333a204c6567656e6461727920576561706f6e202d203530303020474d43a2646970667358221220ddb4f64df8979fb2094c66d79625afa9c11ae15ac019f7027017f266bd1399a364736f6c63430008180033",
  "linkReferences": {},
  "deployedLinkReferences": {}
}